{
  "_format": "hh-sol-artifact-1",
  "contractName": "MessageProxyForSchain",
  "sourceName": "contracts/schain/MessageProxyForSchain.sol",
  "abi": [
    {
      "anonymous": false,
      "inputs": [
        {
          "indexed": false,
          "internalType": "uint256",
          "name": "oldValue",
          "type": "uint256"
        },
        {
          "indexed": false,
          "internalType": "uint256",
          "name": "newValue",
          "type": "uint256"
        }
      ],
      "name": "GasLimitWasChanged",
      "type": "event"
    },
    {
      "anonymous": false,
      "inputs": [
        {
          "indexed": true,
          "internalType": "bytes32",
          "name": "dstChainHash",
          "type": "bytes32"
        },
        {
          "indexed": true,
          "internalType": "uint256",
          "name": "msgCounter",
          "type": "uint256"
        },
        {
          "indexed": true,
          "internalType": "address",
          "name": "srcContract",
          "type": "address"
        },
        {
          "indexed": false,
          "internalType": "address",
          "name": "dstContract",
          "type": "address"
        },
        {
          "indexed": false,
          "internalType": "bytes",
          "name": "data",
          "type": "bytes"
        }
      ],
      "name": "OutgoingMessage",
      "type": "event"
    },
    {
      "anonymous": false,
      "inputs": [
        {
          "indexed": true,
          "internalType": "uint256",
          "name": "msgCounter",
          "type": "uint256"
        },
        {
          "indexed": false,
          "internalType": "bytes",
          "name": "message",
          "type": "bytes"
        }
      ],
      "name": "PostMessageError",
      "type": "event"
    },
    {
      "anonymous": false,
      "inputs": [
        {
          "indexed": true,
          "internalType": "bytes32",
          "name": "role",
          "type": "bytes32"
        },
        {
          "indexed": true,
          "internalType": "bytes32",
          "name": "previousAdminRole",
          "type": "bytes32"
        },
        {
          "indexed": true,
          "internalType": "bytes32",
          "name": "newAdminRole",
          "type": "bytes32"
        }
      ],
      "name": "RoleAdminChanged",
      "type": "event"
    },
    {
      "anonymous": false,
      "inputs": [
        {
          "indexed": true,
          "internalType": "bytes32",
          "name": "role",
          "type": "bytes32"
        },
        {
          "indexed": true,
          "internalType": "address",
          "name": "account",
          "type": "address"
        },
        {
          "indexed": true,
          "internalType": "address",
          "name": "sender",
          "type": "address"
        }
      ],
      "name": "RoleGranted",
      "type": "event"
    },
    {
      "anonymous": false,
      "inputs": [
        {
          "indexed": true,
          "internalType": "bytes32",
          "name": "role",
          "type": "bytes32"
        },
        {
          "indexed": true,
          "internalType": "address",
          "name": "account",
          "type": "address"
        },
        {
          "indexed": true,
          "internalType": "address",
          "name": "sender",
          "type": "address"
        }
      ],
      "name": "RoleRevoked",
      "type": "event"
    },
    {
      "inputs": [],
      "name": "CHAIN_CONNECTOR_ROLE",
      "outputs": [
        {
          "internalType": "bytes32",
          "name": "",
          "type": "bytes32"
        }
      ],
      "stateMutability": "view",
      "type": "function"
    },
    {
      "inputs": [],
      "name": "CONSTANT_SETTER_ROLE",
      "outputs": [
        {
          "internalType": "bytes32",
          "name": "",
          "type": "bytes32"
        }
      ],
      "stateMutability": "view",
      "type": "function"
    },
    {
      "inputs": [],
      "name": "DEFAULT_ADMIN_ROLE",
      "outputs": [
        {
          "internalType": "bytes32",
          "name": "",
          "type": "bytes32"
        }
      ],
      "stateMutability": "view",
      "type": "function"
    },
    {
      "inputs": [],
      "name": "EXTRA_CONTRACT_REGISTRAR_ROLE",
      "outputs": [
        {
          "internalType": "bytes32",
          "name": "",
          "type": "bytes32"
        }
      ],
      "stateMutability": "view",
      "type": "function"
    },
    {
      "inputs": [],
      "name": "MAINNET_HASH",
      "outputs": [
        {
          "internalType": "bytes32",
          "name": "",
          "type": "bytes32"
        }
      ],
      "stateMutability": "view",
      "type": "function"
    },
    {
      "inputs": [],
      "name": "MESSAGES_LENGTH",
      "outputs": [
        {
          "internalType": "uint256",
          "name": "",
          "type": "uint256"
        }
      ],
      "stateMutability": "view",
      "type": "function"
    },
    {
      "inputs": [
        {
          "internalType": "string",
          "name": "chainName",
          "type": "string"
        }
      ],
      "name": "addConnectedChain",
      "outputs": [],
      "stateMutability": "nonpayable",
      "type": "function"
    },
    {
      "inputs": [
        {
          "internalType": "bytes32",
          "name": "",
          "type": "bytes32"
        }
      ],
      "name": "connectedChains",
      "outputs": [
        {
          "internalType": "uint256",
          "name": "incomingMessageCounter",
          "type": "uint256"
        },
        {
          "internalType": "uint256",
          "name": "outgoingMessageCounter",
          "type": "uint256"
        },
        {
          "internalType": "bool",
          "name": "inited",
          "type": "bool"
        }
      ],
      "stateMutability": "view",
      "type": "function"
    },
    {
      "inputs": [],
      "name": "gasLimit",
      "outputs": [
        {
          "internalType": "uint256",
          "name": "",
          "type": "uint256"
        }
      ],
      "stateMutability": "view",
      "type": "function"
    },
    {
      "inputs": [
        {
          "internalType": "string",
          "name": "fromSchainName",
          "type": "string"
        }
      ],
      "name": "getIncomingMessagesCounter",
      "outputs": [
        {
          "internalType": "uint256",
          "name": "",
          "type": "uint256"
        }
      ],
      "stateMutability": "view",
      "type": "function"
    },
    {
      "inputs": [
        {
          "internalType": "string",
          "name": "targetSchainName",
          "type": "string"
        }
      ],
      "name": "getOutgoingMessagesCounter",
      "outputs": [
        {
          "internalType": "uint256",
          "name": "",
          "type": "uint256"
        }
      ],
      "stateMutability": "view",
      "type": "function"
    },
    {
      "inputs": [
        {
          "internalType": "bytes32",
          "name": "role",
          "type": "bytes32"
        }
      ],
      "name": "getRoleAdmin",
      "outputs": [
        {
          "internalType": "bytes32",
          "name": "",
          "type": "bytes32"
        }
      ],
      "stateMutability": "view",
      "type": "function"
    },
    {
      "inputs": [
        {
          "internalType": "bytes32",
          "name": "role",
          "type": "bytes32"
        },
        {
          "internalType": "uint256",
          "name": "index",
          "type": "uint256"
        }
      ],
      "name": "getRoleMember",
      "outputs": [
        {
          "internalType": "address",
          "name": "",
          "type": "address"
        }
      ],
      "stateMutability": "view",
      "type": "function"
    },
    {
      "inputs": [
        {
          "internalType": "bytes32",
          "name": "role",
          "type": "bytes32"
        }
      ],
      "name": "getRoleMemberCount",
      "outputs": [
        {
          "internalType": "uint256",
          "name": "",
          "type": "uint256"
        }
      ],
      "stateMutability": "view",
      "type": "function"
    },
    {
      "inputs": [
        {
          "internalType": "bytes32",
          "name": "role",
          "type": "bytes32"
        },
        {
          "internalType": "address",
          "name": "account",
          "type": "address"
        }
      ],
      "name": "grantRole",
      "outputs": [],
      "stateMutability": "nonpayable",
      "type": "function"
    },
    {
      "inputs": [
        {
          "internalType": "bytes32",
          "name": "role",
          "type": "bytes32"
        },
        {
          "internalType": "address",
          "name": "account",
          "type": "address"
        }
      ],
      "name": "hasRole",
      "outputs": [
        {
          "internalType": "bool",
          "name": "",
          "type": "bool"
        }
      ],
      "stateMutability": "view",
      "type": "function"
    },
    {
      "inputs": [
        {
          "internalType": "contract KeyStorage",
          "name": "blsKeyStorage",
          "type": "address"
        },
        {
          "internalType": "string",
          "name": "schainName",
          "type": "string"
        }
      ],
      "name": "initialize",
      "outputs": [],
      "stateMutability": "nonpayable",
      "type": "function"
    },
    {
      "inputs": [
        {
          "internalType": "uint256",
          "name": "newGasLimit",
          "type": "uint256"
        }
      ],
      "name": "initializeMessageProxy",
      "outputs": [],
      "stateMutability": "nonpayable",
      "type": "function"
    },
    {
      "inputs": [
        {
          "internalType": "string",
          "name": "schainName",
          "type": "string"
        }
      ],
      "name": "isConnectedChain",
      "outputs": [
        {
          "internalType": "bool",
          "name": "",
          "type": "bool"
        }
      ],
      "stateMutability": "view",
      "type": "function"
    },
    {
      "inputs": [
        {
          "internalType": "string",
          "name": "schainName",
          "type": "string"
        },
        {
          "internalType": "address",
          "name": "contractAddress",
          "type": "address"
        }
      ],
      "name": "isContractRegistered",
      "outputs": [
        {
          "internalType": "bool",
          "name": "",
          "type": "bool"
        }
      ],
      "stateMutability": "view",
      "type": "function"
    },
    {
      "inputs": [],
      "name": "keyStorage",
      "outputs": [
        {
          "internalType": "contract KeyStorage",
          "name": "",
          "type": "address"
        }
      ],
      "stateMutability": "view",
      "type": "function"
    },
    {
      "inputs": [
        {
          "internalType": "string",
          "name": "fromChainName",
          "type": "string"
        },
        {
          "internalType": "uint256",
          "name": "startingCounter",
          "type": "uint256"
        },
        {
          "components": [
            {
              "internalType": "address",
              "name": "sender",
              "type": "address"
            },
            {
              "internalType": "address",
              "name": "destinationContract",
              "type": "address"
            },
            {
              "internalType": "bytes",
              "name": "data",
              "type": "bytes"
            }
          ],
          "internalType": "struct MessageProxy.Message[]",
          "name": "messages",
          "type": "tuple[]"
        },
        {
          "components": [
            {
              "internalType": "uint256[2]",
              "name": "blsSignature",
              "type": "uint256[2]"
            },
            {
              "internalType": "uint256",
              "name": "hashA",
              "type": "uint256"
            },
            {
              "internalType": "uint256",
              "name": "hashB",
              "type": "uint256"
            },
            {
              "internalType": "uint256",
              "name": "counter",
              "type": "uint256"
            }
          ],
          "internalType": "struct MessageProxy.Signature",
          "name": "signature",
          "type": "tuple"
        }
      ],
      "name": "postIncomingMessages",
      "outputs": [],
      "stateMutability": "nonpayable",
      "type": "function"
    },
    {
      "inputs": [
        {
          "internalType": "bytes32",
          "name": "targetChainHash",
          "type": "bytes32"
        },
        {
          "internalType": "address",
          "name": "targetContract",
          "type": "address"
        },
        {
          "internalType": "bytes",
          "name": "data",
          "type": "bytes"
        }
      ],
      "name": "postOutgoingMessage",
      "outputs": [],
      "stateMutability": "nonpayable",
      "type": "function"
    },
    {
      "inputs": [
        {
          "internalType": "string",
          "name": "chainName",
          "type": "string"
        },
        {
          "internalType": "address",
          "name": "extraContract",
          "type": "address"
        }
      ],
      "name": "registerExtraContract",
      "outputs": [],
      "stateMutability": "nonpayable",
      "type": "function"
    },
    {
      "inputs": [
        {
          "internalType": "address",
          "name": "extraContract",
          "type": "address"
        }
      ],
      "name": "registerExtraContractForAll",
      "outputs": [],
      "stateMutability": "nonpayable",
      "type": "function"
    },
    {
      "inputs": [
        {
          "internalType": "bytes32",
          "name": "",
          "type": "bytes32"
        },
        {
          "internalType": "address",
          "name": "",
          "type": "address"
        }
      ],
      "name": "registryContracts",
      "outputs": [
        {
          "internalType": "bool",
          "name": "",
          "type": "bool"
        }
      ],
      "stateMutability": "view",
      "type": "function"
    },
    {
      "inputs": [
        {
          "internalType": "string",
          "name": "chainName",
          "type": "string"
        }
      ],
      "name": "removeConnectedChain",
      "outputs": [],
      "stateMutability": "nonpayable",
      "type": "function"
    },
    {
      "inputs": [
        {
          "internalType": "string",
          "name": "chainName",
          "type": "string"
        },
        {
          "internalType": "address",
          "name": "extraContract",
          "type": "address"
        }
      ],
      "name": "removeExtraContract",
      "outputs": [],
      "stateMutability": "nonpayable",
      "type": "function"
    },
    {
      "inputs": [
        {
          "internalType": "address",
          "name": "extraContract",
          "type": "address"
        }
      ],
      "name": "removeExtraContractForAll",
      "outputs": [],
      "stateMutability": "nonpayable",
      "type": "function"
    },
    {
      "inputs": [
        {
          "internalType": "bytes32",
          "name": "role",
          "type": "bytes32"
        },
        {
          "internalType": "address",
          "name": "account",
          "type": "address"
        }
      ],
      "name": "renounceRole",
      "outputs": [],
      "stateMutability": "nonpayable",
      "type": "function"
    },
    {
      "inputs": [
        {
          "internalType": "bytes32",
          "name": "role",
          "type": "bytes32"
        },
        {
          "internalType": "address",
          "name": "account",
          "type": "address"
        }
      ],
      "name": "revokeRole",
      "outputs": [],
      "stateMutability": "nonpayable",
      "type": "function"
    },
    {
      "inputs": [],
      "name": "schainHash",
      "outputs": [
        {
          "internalType": "bytes32",
          "name": "",
          "type": "bytes32"
        }
      ],
      "stateMutability": "view",
      "type": "function"
    },
    {
      "inputs": [
        {
          "internalType": "uint256",
          "name": "newGasLimit",
          "type": "uint256"
        }
      ],
      "name": "setNewGasLimit",
      "outputs": [],
      "stateMutability": "nonpayable",
      "type": "function"
    },
    {
      "inputs": [
        {
          "internalType": "bytes4",
          "name": "interfaceId",
          "type": "bytes4"
        }
      ],
      "name": "supportsInterface",
      "outputs": [
        {
          "internalType": "bool",
          "name": "",
          "type": "bool"
        }
      ],
      "stateMutability": "view",
      "type": "function"
    },
    {
      "inputs": [
        {
          "components": [
            {
              "internalType": "bytes32",
              "name": "dstChain",
              "type": "bytes32"
            },
            {
              "internalType": "uint256",
              "name": "msgCounter",
              "type": "uint256"
            },
            {
              "internalType": "address",
              "name": "srcContract",
              "type": "address"
            },
            {
              "internalType": "address",
              "name": "dstContract",
              "type": "address"
            },
            {
              "internalType": "bytes",
              "name": "data",
              "type": "bytes"
            }
          ],
          "internalType": "struct MessageProxyForSchain.OutgoingMessageData",
          "name": "message",
          "type": "tuple"
        }
      ],
      "name": "verifyOutgoingMessageData",
      "outputs": [
        {
          "internalType": "bool",
          "name": "isValidMessage",
          "type": "bool"
        }
      ],
      "stateMutability": "view",
      "type": "function"
    }
  ],
  "bytecode": "0x608060405234801561001057600080fd5b50613763806100206000396000f3fe608060405234801561001057600080fd5b50600436106102115760003560e01c80639010d07c11610125578063cab010c9116100ad578063f2f636051161007c578063f2f636051461050b578063f399e22e1461051e578063f68016b714610531578063f79f79541461053a578063f8c88a161461054d57600080fd5b8063cab010c914610483578063d547741f14610496578063e356a6f9146104a9578063e6ab8403146104bc57600080fd5b8063a217fddf116100f4578063a217fddf14610426578063a8bb1b7d1461042e578063bbc4e8c214610441578063bdb40cb014610468578063ca15c8731461047057600080fd5b80639010d07c146103c257806391d14854146103ed5780639448920214610400578063999ab9aa1461041357600080fd5b80633cdd2cc3116101a857806367ec60201161017757806367ec6020146103485780636e2f37b01461035b57806377fe0f311461036e5780637aa38a7c146103815780637c5ad80c1461039457600080fd5b80633cdd2cc3146102fa5780634d2038591461030d578063523c8ab614610320578063603e5d131461033557600080fd5b80632f2ff15d116101e45780632f2ff15d146102b657806336568abe146102cb5780633b597ffe146102de5780633b690b6b146102f157600080fd5b806301ffc9a71461021657806313c522601461023e578063248a9ca31461026157806328c5e18214610284575b600080fd5b610229610224366004612d58565b610560565b60405190151581526020015b60405180910390f35b61025360008051602061370e83398151915281565b604051908152602001610235565b61025361026f366004612c95565b60009081526065602052604090206001015490565b6102536040516613585a5b9b995d60ca1b60208201526027016040516020818303038152906040528051906020012081565b6102c96102c4366004612cae565b61058b565b005b6102c96102d9366004612cae565b6105b2565b6102c96102ec366004612c95565b6105d4565b61025360cd5481565b6102c9610308366004612f22565b61069f565b6102c961031b366004612c5b565b61078d565b6102536000805160206136ae83398151915281565b6102c9610343366004612e68565b61088f565b610253610356366004612dd1565b610ac3565b6102c9610369366004612c95565b610b3c565b61025361037c366004612dd1565b610c1a565b61022961038f366004612fdf565b610cc0565b6102296103a2366004612cae565b60ca60209081526000928352604080842090915290825290205460ff1681565b6103d56103d0366004612d36565b610cfa565b6040516001600160a01b039091168152602001610235565b6102296103fb366004612cae565b610d19565b6102c961040e366004612cde565b610d44565b610229610421366004612f22565b610dfa565b610253600081565b6102c961043c366004612c5b565b610e43565b6102537f96e3fc3be15159903e053027cff8a23f39a990e0194abcd8ac1cf1b355b8b93c81565b610253600a81565b61025361047e366004612c95565b610f1a565b6102c9610491366004612f56565b610f31565b6102c96104a4366004612cae565b610fbc565b6102296104b7366004612e12565b610fc6565b6104ee6104ca366004612c95565b60c96020526000908152604090208054600182015460029092015490919060ff1683565b604080519384526020840192909252151590820152606001610235565b6102c9610519366004612dd1565b611054565b6102c961052c366004612d82565b6110dc565b61025360cb5481565b60cc546103d5906001600160a01b031681565b6102c961055b366004612f56565b611223565b60006001600160e01b03198216635a05180f60e01b14806105855750610585826112ae565b92915050565b61059582826112e3565b60008281526097602052604090206105ad9082611309565b505050565b6105bc828261131e565b60008281526097602052604090206105ad9082611398565b6105fe7f96e3fc3be15159903e053027cff8a23f39a990e0194abcd8ac1cf1b355b8b93c33610d19565b61065e5760405162461bcd60e51b815260206004820152602660248201527f4e6f7420656e6f756768207065726d697373696f6e7320746f2073657420636f6044820152651b9cdd185b9d60d21b60648201526084015b60405180910390fd5b60cb5460408051918252602082018390527f8abddb75fd50f7583079c0b550ec7a54fa3fd8d5dd1d2dfdc473f7ce27e3b9ac910160405180910390a160cb55565b6106b760008051602061370e83398151915233610d19565b6106d35760405162461bcd60e51b815260040161065590613249565b6000816040516020016106e6919061313a565b60405160208183030381529060405280519060200120905060405160200161071b906613585a5b9b995d60ca1b815260070190565b604051602081830303815290604052805190602001208114156107805760405162461bcd60e51b815260206004820152601960248201527f4d61696e6e65742063616e6e6f742062652072656d6f766564000000000000006044820152606401610655565b610789826113ad565b5050565b6107a56000805160206136ae83398151915233610d19565b6107c15760405162461bcd60e51b81526004016106559061327e565b6001600160a01b0381163b6108185760405162461bcd60e51b815260206004820152601f60248201527f476976656e2061646472657373206973206e6f74206120636f6e7472616374006044820152606401610655565b6001600160a01b03811660009081526000805160206136ee833981519152602052604090205460ff161561085e5760405162461bcd60e51b81526004016106559061339d565b6001600160a01b031660009081526000805160206136ee83398151915260205260409020805460ff19166001179055565b600086866040516020016108a492919061312a565b60408051601f198184030181529181528151602092830120600081815260c990935291206002015490915060ff166109195760405162461bcd60e51b815260206004820152601860248201527710da185a5b881a5cc81b9bdd081a5b9a5d1a585b1a5e995960421b6044820152606401610655565b600a83111561095e5760405162461bcd60e51b8152602060048201526011602482015270546f6f206d616e79206d6573736167657360781b6044820152606401610655565b61097161096b8585611490565b8361159b565b6109bd5760405162461bcd60e51b815260206004820152601960248201527f5369676e6174757265206973206e6f74207665726966696564000000000000006044820152606401610655565b600081815260c960205260409020548514610a405760405162461bcd60e51b815260206004820152603860248201527f5374617274696e6720636f756e746572206973206e6f74207175616c20746f2060448201527f696e636f6d696e67206d65737361676520636f756e74657200000000000000006064820152608401610655565b60005b83811015610a9657610a8382868684818110610a6157610a616135c7565b9050602002810190610a739190613427565b610a7e89600161343d565b611648565b5080610a8e81613556565b915050610a43565b50600081815260c9602052604081208054859290610ab590849061343d565b909155505050505050505050565b6000808383604051602001610ad992919061312a565b60408051601f198184030181529181528151602092830120600081815260c990935291206002015490915060ff16610b235760405162461bcd60e51b815260040161065590613359565b600090815260c960205260409020600101549392505050565b600054610100900460ff1680610b55575060005460ff16155b610b715760405162461bcd60e51b8152600401610655906132c7565b600054610100900460ff16158015610b93576000805461ffff19166101011790555b610b9b6117cd565b610ba6600033611859565b610bbe60008051602061370e83398151915233611859565b610bd66000805160206136ae83398151915233611859565b610c007f96e3fc3be15159903e053027cff8a23f39a990e0194abcd8ac1cf1b355b8b93c33611859565b60cb8290558015610789576000805461ff00191690555050565b6000808383604051602001610c3092919061312a565b60408051601f198184030181529181528151602092830120600081815260c990935291206002015490915060ff16610caa5760405162461bcd60e51b815260206004820152601f60248201527f536f7572636520636861696e206973206e6f7420696e697469616c697a6564006044820152606401610655565b600090815260c960205260409020549392505050565b8051600090815260ce60209081526040808320828501518452909152812054610ce883611863565b811415610cf457600191505b50919050565b6000828152609760205260408120610d1290836118cf565b9392505050565b60009182526065602090815260408084206001600160a01b0393909316845291905290205460ff1690565b610d4f8383836118db565b60006040518060a00160405280858152602001600160c9600088815260200190815260200160002060010154610d859190613488565b81523360208201526001600160a01b03851660408201526060018390528051909150610db082611863565b600082815260ce6020908152604080832060d08084528285208054865291845291842094909455848352905281546001929190610dee90849061343d565b90915550505050505050565b600060c9600083604051602001610e11919061313a565b60408051601f198184030181529181528151602092830120835290820192909252016000206002015460ff1692915050565b610e5b6000805160206136ae83398151915233610d19565b610e775760405162461bcd60e51b81526004016106559061327e565b6001600160a01b03811660009081526000805160206136ee833981519152602052604090205460ff16610eec5760405162461bcd60e51b815260206004820181905260248201527f457874726120636f6e7472616374206973206e6f7420726567697374657265646044820152606401610655565b6001600160a01b031660009081526000805160206136ee83398151915260205260409020805460ff19169055565b600081815260976020526040812061058590611a32565b610f496000805160206136ae83398151915233610d19565b610f655760405162461bcd60e51b81526004016106559061327e565b600082604051602001610f78919061313a565b60405160208183030381529060405280519060200120905060cd54811415610fb25760405162461bcd60e51b815260040161065590613315565b6105ad8183611a3c565b6105bc8282611b98565b600060ca60008585604051602001610fdf92919061312a565b60408051601f19818403018152918152815160209283012083528282019390935290820160009081206001600160a01b0386168252909152205460ff168061104c57506001600160a01b03821660009081526000805160206136ee833981519152602052604090205460ff165b949350505050565b6000828260405160200161106992919061312a565b60405160208183030381529060405280519060200120905060cd548114156110d35760405162461bcd60e51b815260206004820152601c60248201527f53636861696e2063616e6e6f7420636f6e6e65637420697473656c66000000006044820152606401610655565b6105ad81611bbe565b600054610100900460ff16806110f5575060005460ff16155b6111115760405162461bcd60e51b8152600401610655906132c7565b600054610100900460ff16158015611133576000805461ffff19166101011790555b61113f622dc6c0610b3c565b60cc80546001600160a01b0385166001600160a01b031990911617905560408051606081018252600080825260208083018290526001838501529251919260c99261119891016613585a5b9b995d60ca1b815260070190565b60408051808303601f19018152918152815160209283012083528282019390935290820160002083518155838201516001820155928201516002909301805460ff191693151593909317909255516111f29184910161313a565b60408051601f19818403018152919052805160209091012060cd5580156105ad576000805461ff0019169055505050565b61123b6000805160206136ae83398151915233610d19565b6112575760405162461bcd60e51b81526004016106559061327e565b60008260405160200161126a919061313a565b60405160208183030381529060405280519060200120905060cd548114156112a45760405162461bcd60e51b815260040161065590613315565b6105ad8183611ca4565b60006001600160e01b03198216637965db0b60e01b148061058557506301ffc9a760e01b6001600160e01b0319831614610585565b6000828152606560205260409020600101546112ff8133611d43565b6105ad8383611da7565b6000610d12836001600160a01b038416611e2d565b6001600160a01b038116331461138e5760405162461bcd60e51b815260206004820152602f60248201527f416363657373436f6e74726f6c3a2063616e206f6e6c792072656e6f756e636560448201526e103937b632b9903337b91039b2b63360891b6064820152608401610655565b6107898282611e7c565b6000610d12836001600160a01b038416611ee3565b6113c560008051602061370e83398151915233610d19565b6113e15760405162461bcd60e51b815260040161065590613249565b6000816040516020016113f4919061313a565b60408051601f198184030181529181528151602092830120600081815260c990935291206002015490915060ff166114695760405162461bcd60e51b815260206004820152601860248201527710da185a5b881a5cc81b9bdd081a5b9a5d1a585b1a5e995960421b6044820152606401610655565b600090815260c9602052604081208181556001810191909155600201805460ff1916905550565b6000606060005b8381101561158b57818585838181106114b2576114b26135c7565b90506020028101906114c49190613427565b6114d2906020810190612c5b565b60601b6001600160601b0319168686848181106114f1576114f16135c7565b90506020028101906115039190613427565b611514906040810190602001612c5b565b60601b6001600160601b031916878785818110611533576115336135c7565b90506020028101906115459190613427565b6115539060408101906133e1565b6040516020016115679594939291906130f0565b6040516020818303038152906040529150808061158390613556565b915050611497565b5080516020909101209392505050565b604080518082018252823581526020808401359082015260cc548251632aa77bd360e11b81528351600094610d12949388936080808a013594938a01359360608b0135936001600160a01b03169263554ef7a6926004808301939192829003018186803b15801561160b57600080fd5b505afa15801561161f573d6000803e3d6000fd5b505050506040513d601f19601f820116820180604052508101906116439190612f9c565b611fdd565b600061165a6040840160208501612c5b565b6001600160a01b031663884cee5a60cb548686600001602081019061167f9190612c5b565b61168c60408901896133e1565b6040518663ffffffff1660e01b81526004016116ab94939291906131ef565b602060405180830381600088803b1580156116c557600080fd5b5087f1935050505080156116f6575060408051601f3d908101601f191682019092526116f391810190612c78565b60015b6117c6576117026135f3565b806308c379a01415611764575061171761360f565b806117225750611766565b827f4b7d3908626050c0d998d657e4e6f31cb43ed736bf2b9a1a0192494537ca0e59826040516117529190613236565b60405180910390a26000915050610d12565b505b3d808015611790576040519150601f19603f3d011682016040523d82523d6000602084013e611795565b606091505b50827f4b7d3908626050c0d998d657e4e6f31cb43ed736bf2b9a1a0192494537ca0e59826040516117529190613236565b9050610d12565b600054610100900460ff16806117e6575060005460ff16155b6118025760405162461bcd60e51b8152600401610655906132c7565b600054610100900460ff16158015611824576000805461ffff19166101011790555b61182c6121a7565b6118346121a7565b61183c6121a7565b6118446121a7565b8015611856576000805461ff00191690555b50565b6105958282612211565b6000808260000151836020015160001b846040015160601b6001600160601b031916856060015160601b6001600160601b03191686608001516040516020016118b09594939291906130b5565b60408051601f1981840301815291905280516020909101209392505050565b6000610d12838361221b565b600083815260c9602052604090206002015460ff1661190c5760405162461bcd60e51b815260040161065590613359565b3360009081526000805160206136ee833981519152602052604090205460ff16806119505750600083815260ca6020908152604080832033845290915290205460ff165b6119a65760405162461bcd60e51b815260206004820152602160248201527f53656e64657220636f6e7472616374206973206e6f74207265676973746572656044820152601960fa1b6064820152608401610655565b336001600160a01b031660c9600085815260200190815260200160002060010154847f803d7f3ca0e5f93fcce39fa29812ed57a95a151594966e17125220132741c6b085856040516119f99291906131cb565b60405180910390a4600160c960008581526020019081526020016000206001016000828254611a28919061343d565b9091555050505050565b6000610585825490565b6001600160a01b0381163b611a935760405162461bcd60e51b815260206004820152601f60248201527f476976656e2061646472657373206973206e6f74206120636f6e7472616374006044820152606401610655565b600082815260ca602090815260408083206001600160a01b038516845290915290205460ff1615611ad65760405162461bcd60e51b81526004016106559061339d565b6001600160a01b03811660009081526000805160206136ee833981519152602052604090205460ff1615611b685760405162461bcd60e51b815260206004820152603360248201527f457874726120636f6e747261637420697320616c7265616479207265676973746044820152726572656420666f7220616c6c20636861696e7360681b6064820152608401610655565b600091825260ca602090815260408084206001600160a01b0390931684529190529020805460ff19166001179055565b600082815260656020526040902060010154611bb48133611d43565b6105ad8383611e7c565b611bd660008051602061370e83398151915233610d19565b611bf25760405162461bcd60e51b815260040161065590613249565b600081815260c9602052604090206002015460ff1615611c545760405162461bcd60e51b815260206004820152601a60248201527f436861696e20697320616c726561647920636f6e6e65637465640000000000006044820152606401610655565b6040805160608101825260008082526020808301828152600184860181815296845260c9909252939091209151825591519181019190915590516002909101805460ff1916911515919091179055565b600082815260ca602090815260408083206001600160a01b038516845290915290205460ff16611d165760405162461bcd60e51b815260206004820181905260248201527f457874726120636f6e7472616374206973206e6f7420726567697374657265646044820152606401610655565b600091825260ca602090815260408084206001600160a01b0390931684529190529020805460ff19169055565b611d4d8282610d19565b61078957611d65816001600160a01b03166014612245565b611d70836020612245565b604051602001611d81929190613156565b60408051601f198184030181529082905262461bcd60e51b825261065591600401613236565b611db18282610d19565b6107895760008281526065602090815260408083206001600160a01b03851684529091529020805460ff19166001179055611de93390565b6001600160a01b0316816001600160a01b0316837f2f8788117e7eff1d82e926ec794901d17c78024a50270940304540a733656f0d60405160405180910390a45050565b6000818152600183016020526040812054611e7457508154600181810184556000848152602080822090930184905584548482528286019093526040902091909155610585565b506000610585565b611e868282610d19565b156107895760008281526065602090815260408083206001600160a01b0385168085529252808320805460ff1916905551339285917ff6391f5c32d9c69d2a47ea670b442974b53935d1edc7fd64eb21e047a839171b9190a45050565b60008181526001830160205260408120548015611fcc576000611f07600183613488565b8554909150600090611f1b90600190613488565b9050818114611f80576000866000018281548110611f3b57611f3b6135c7565b9060005260206000200154905080876000018481548110611f5e57611f5e6135c7565b6000918252602080832090910192909255918252600188019052604090208390555b8554869080611f9157611f916135b1565b600190038181906000526020600020016000905590558560010160008681526020019081526020016000206000905560019350505050610585565b6000915050610585565b5092915050565b6000611fe8876123e0565b61202d5760405162461bcd60e51b815260206004820152601660248201527514da59db985d1d5c99481a5cc81b9bdd081d985b1a5960521b6044820152606401610655565b61203986868686612416565b6120455750600061219d565b60006120548860200151612502565b9050612064886000015182612527565b6120a15760405162461bcd60e51b815260206004820152600e60248201526d5369676e206e6f7420696e20473160901b6044820152606401610655565b6120ab8585612527565b6120e85760405162461bcd60e51b815260206004820152600e60248201526d48617368206e6f7420696e20473160901b6044820152606401610655565b60006120f261255d565b90506120fd8461261d565b6121405760405162461bcd60e51b8152602060048201526014602482015273283ab13634b19025b2bc903737ba1034b710239960611b6044820152606401610655565b6121988960000151838360000151602001518460000151600001518560200151602001518660200151600001518c8c8c60000151602001518d60000151600001518e60200151602001518f6020015160000151612631565b925050505b9695505050505050565b600054610100900460ff16806121c0575060005460ff16155b6121dc5760405162461bcd60e51b8152600401610655906132c7565b600054610100900460ff16158015611844576000805461ffff19166101011790558015611856576000805461ff001916905550565b6107898282611da7565b6000826000018281548110612232576122326135c7565b9060005260206000200154905092915050565b60606000612254836002613469565b61225f90600261343d565b6001600160401b03811115612276576122766135dd565b6040519080825280601f01601f1916602001820160405280156122a0576020820181803683370190505b509050600360fc1b816000815181106122bb576122bb6135c7565b60200101906001600160f81b031916908160001a905350600f60fb1b816001815181106122ea576122ea6135c7565b60200101906001600160f81b031916908160001a905350600061230e846002613469565b61231990600161343d565b90505b6001811115612391576f181899199a1a9b1b9c1cb0b131b232b360811b85600f166010811061234d5761234d6135c7565b1a60f81b828281518110612363576123636135c7565b60200101906001600160f81b031916908160001a90535060049490941c9361238a816134cf565b905061231c565b508315610d125760405162461bcd60e51b815260206004820181905260248201527f537472696e67733a20686578206c656e67746820696e73756666696369656e746044820152606401610655565b60006000805160206136ce8339815191528260000151108015610585575050602001516000805160206136ce8339815191521190565b600060648411156124295750600061104c565b60006124436000805160206136ce83398151915287613571565b90506000805160206136ce83398151915261245e868361343d565b6124689190613571565b905060006000805160206136ce83398151915260036000805160206136ce833981519152846000805160206136ce833981519152868709090890506124bc60026000805160206136ce833981519152613455565b8410806124da5750806000805160206136ce83398151915285860914155b806124e55750848214155b156124f55760009250505061104c565b5060019695505050505050565b60006000805160206136ce83398151915261251d8382613488565b6105859190613571565b60006000805160206136ce833981519152806003818681888909090881806125515761255161359b565b84850914949350505050565b612565612ad7565b50604080516080810182527f1800deef121f1e76426a00665e5c4479674322d4f75edadd46debd5cd992f6ed8183019081527f198e9393920d483a7260bfb731fb5d25f1aa493335a9e71297e485b7aef312c26060830152815281518083019092527f12c85ea5db8c6deb4aab71808dcb408fe3d1e7690c43d37b4ce6cc0166fa7daa82527f090689d0585ff075ec9e99ad690c3395bc4b313370b38ef355acdadcd122975b60208381019190915281019190915290565b600061058582600001518360200151612701565b60008061263c612b1b565b8e8152602081018e9052604081018d9052606081018c9052608081018b905260a081018a905260c0810189905260e081018890526101008101879052610120810186905261014081018590526101608101849052612698612b3a565b602081610180846008600019fa9250826126eb5760405162461bcd60e51b815260206004820152601460248201527314185a5c9a5b99c818da1958dac819985a5b195960621b6044820152606401610655565b5115159f9e505050505050505050505050505050565b600061270d83836127d5565b1561271a57506001610585565b600061272583612808565b905060006127b8612795604080518082018252600080825260209182015281518083019092527f2b149d40ceb8aaae81be18991be06ac3b5b4c5e559dbefa33267e6dc24a138e582527e9713b03af0fed4cd2cafadeed8fdf4a74fa084e52d1852e4a2bd0685c315d29082015290565b6127b26127ab886127a58a612808565b906128be565b85906129d1565b906129d1565b80519091501580156127cc57506020810151155b95945050505050565b81516000901580156127e957506020830151155b80156127f6575081516001145b8015610d125750506020015115919050565b60408051808201909152600080825260208201526000805160206136ce83398151915260008160208501518551099050600082806128485761284861359b565b83806128565761285661359b565b84806128645761286461359b565b6020880151612874600188613488565b0987510884806128865761288661359b565b6020880151885108099050604051806040016040528082815260200184806128b0576128b061359b565b848508905295945050505050565b604080518082019091526000808252602082015260006000805160206136ce83398151915290506000604051806040016040528083806129005761290061359b565b8651885109815260200183806129185761291861359b565b86602001518860200151099052905081806129355761293561359b565b82806129435761294361359b565b6020830151612953600186613488565b09825108835281806129675761296761359b565b82806129755761297561359b565b60208301518351086129879084613488565b83806129955761299561359b565b84806129a3576129a361359b565b602088015188510885806129b9576129b961359b565b60208a01518a51080908602084015250909392505050565b6040805180820190915260008082526020820152815183516000805160206136ce8339815191529111612a22578080612a0c57612a0c61359b565b8351612a189083613488565b8551088252612a57565b808180612a3157612a3161359b565b8551612a3d9084613488565b855108612a4a9083613488565b612a549190613571565b82525b8260200151846020015110612a93578080612a7457612a7461359b565b6020840151612a839083613488565b8560200151086020830152611fd6565b808180612aa257612aa261359b565b6020860151612ab19084613488565b856020015108612ac19083613488565b612acb9190613571565b60208301525092915050565b60408051608081018252600091810182815260608201929092529081908152602001612b16604051806040016040528060008152602001600081525090565b905290565b604051806101800160405280600c906020820280368337509192915050565b60405180602001604052806001906020820280368337509192915050565b600082601f830112612b6957600080fd5b81356001600160401b03811115612b8257612b826135dd565b604051612b99601f8301601f19166020018261352a565b818152846020838601011115612bae57600080fd5b816020850160208301376000918101602001919091529392505050565b60008083601f840112612bdd57600080fd5b5081356001600160401b03811115612bf457600080fd5b602083019150836020828501011115612c0c57600080fd5b9250929050565b600060408284031215612c2557600080fd5b604051612c31816134e6565b80915082518152602083015160208201525092915050565b600060a08284031215610cf457600080fd5b600060208284031215612c6d57600080fd5b8135610d1281613698565b600060208284031215612c8a57600080fd5b8151610d1281613698565b600060208284031215612ca757600080fd5b5035919050565b60008060408385031215612cc157600080fd5b823591506020830135612cd381613698565b809150509250929050565b600080600060608486031215612cf357600080fd5b833592506020840135612d0581613698565b915060408401356001600160401b03811115612d2057600080fd5b612d2c86828701612b58565b9150509250925092565b60008060408385031215612d4957600080fd5b50508035926020909101359150565b600060208284031215612d6a57600080fd5b81356001600160e01b031981168114610d1257600080fd5b60008060408385031215612d9557600080fd5b8235612da081613698565b915060208301356001600160401b03811115612dbb57600080fd5b612dc785828601612b58565b9150509250929050565b60008060208385031215612de457600080fd5b82356001600160401b03811115612dfa57600080fd5b612e0685828601612bcb565b90969095509350505050565b600080600060408486031215612e2757600080fd5b83356001600160401b03811115612e3d57600080fd5b612e4986828701612bcb565b9094509250506020840135612e5d81613698565b809150509250925092565b6000806000806000806101008789031215612e8257600080fd5b86356001600160401b0380821115612e9957600080fd5b612ea58a838b01612bcb565b9098509650602089013595506040890135915080821115612ec557600080fd5b818901915089601f830112612ed957600080fd5b813581811115612ee857600080fd5b8a60208260051b8501011115612efd57600080fd5b602083019550809450505050612f168860608901612c49565b90509295509295509295565b600060208284031215612f3457600080fd5b81356001600160401b03811115612f4a57600080fd5b61104c84828501612b58565b60008060408385031215612f6957600080fd5b82356001600160401b03811115612f7f57600080fd5b612f8b85828601612b58565b9250506020830135612cd381613698565b600060808284031215612fae57600080fd5b604051612fba816134e6565b612fc48484612c13565b8152612fd38460408501612c13565b60208201529392505050565b600060208284031215612ff157600080fd5b81356001600160401b038082111561300857600080fd5b9083019060a0828603121561301c57600080fd5b6040516130288161350b565b8235815260208301356020820152604083013561304481613698565b6040820152606083013561305781613698565b606082015260808301358281111561306e57600080fd5b61307a87828601612b58565b60808301525095945050505050565b600081518084526130a181602086016020860161349f565b601f01601f19169290920160200192915050565b858152846020820152836040820152826060820152600082516130df81608085016020870161349f565b919091016080019695505050505050565b60008651613102818460208b0161349f565b8201868152602081018690528385604083013760009301604001928352509095945050505050565b8183823760009101908152919050565b6000825161314c81846020870161349f565b9190910192915050565b7f416363657373436f6e74726f6c3a206163636f756e742000000000000000000081526000835161318e81601785016020880161349f565b7001034b99036b4b9b9b4b733903937b6329607d1b60179184019182015283516131bf81602884016020880161349f565b01602801949350505050565b6001600160a01b038316815260406020820181905260009061104c90830184613089565b8481526001600160a01b03841660208201526060604082018190528101829052818360808301376000818301608090810191909152601f909201601f191601019392505050565b602081526000610d126020830184613089565b6020808252818101527f434841494e5f434f4e4e4543544f525f524f4c45206973207265717569726564604082015260600190565b60208082526029908201527f45585452415f434f4e54524143545f5245474953545241525f524f4c45206973604082015268081c995c5d5a5c995960ba1b606082015260800190565b6020808252602e908201527f496e697469616c697a61626c653a20636f6e747261637420697320616c72656160408201526d191e481a5b9a5d1a585b1a5e995960921b606082015260800190565b60208082526024908201527f53636861696e20686173682063616e206e6f7420626520657175616c204d61696040820152631b9b995d60e21b606082015260800190565b60208082526024908201527f44657374696e6174696f6e20636861696e206973206e6f7420696e697469616c6040820152631a5e995960e21b606082015260800190565b60208082526024908201527f457874726120636f6e747261637420697320616c726561647920726567697374604082015263195c995960e21b606082015260800190565b6000808335601e198436030181126133f857600080fd5b8301803591506001600160401b0382111561341257600080fd5b602001915036819003821315612c0c57600080fd5b60008235605e1983360301811261314c57600080fd5b6000821982111561345057613450613585565b500190565b6000826134645761346461359b565b500490565b600081600019048311821515161561348357613483613585565b500290565b60008282101561349a5761349a613585565b500390565b60005b838110156134ba5781810151838201526020016134a2565b838111156134c9576000848401525b50505050565b6000816134de576134de613585565b506000190190565b604081018181106001600160401b0382111715613505576135056135dd565b60405250565b60a081018181106001600160401b0382111715613505576135056135dd565b601f8201601f191681016001600160401b038111828210171561354f5761354f6135dd565b6040525050565b600060001982141561356a5761356a613585565b5060010190565b6000826135805761358061359b565b500690565b634e487b7160e01b600052601160045260246000fd5b634e487b7160e01b600052601260045260246000fd5b634e487b7160e01b600052603160045260246000fd5b634e487b7160e01b600052603260045260246000fd5b634e487b7160e01b600052604160045260246000fd5b600060033d111561360c5760046000803e5060005160e01c5b90565b600060443d101561361d5790565b6040516003193d81016004833e81513d6001600160401b03816024840111818411171561364c57505050505090565b82850191508151818111156136645750505050505090565b843d870101602082850101111561367e5750505050505090565b61368d6020828601018761352a565b509095945050505050565b6001600160a01b038116811461185657600080fdfe6155b5aac15ce9aa193c0527a6f43be0a36a7e2e7496c2b615c0e5f92284277330644e72e131a029b85045b68181585d97816a916871ca8d3c208c16d87cfd47992e0e3e7050db88ec37ec33505f46a9813ea5551fe17ef58dc201344bcbaf932785f35fe7d8743aa971942d8474737bb31895d396eff2cc688a481e0221e191a2646970667358221220a7ae324f0c665cc92683e665e7636a97a8cfe4de5333030277dd16d5e4822f4764736f6c63430008060033",
  "linkReferences": {},
  "deployedLinkReferences": {}
}